{
  "contractName": "Lottery",
  "abi": [
    {
      "inputs": [],
      "stateMutability": "nonpayable",
      "type": "constructor"
    },
    {
      "inputs": [],
      "name": "manager",
      "outputs": [
        {
          "internalType": "address",
          "name": "",
          "type": "address"
        }
      ],
      "stateMutability": "view",
      "type": "function",
      "constant": true
    },
    {
      "inputs": [
        {
          "internalType": "uint256",
          "name": "",
          "type": "uint256"
        }
      ],
      "name": "participants",
      "outputs": [
        {
          "internalType": "address payable",
          "name": "",
          "type": "address"
        }
      ],
      "stateMutability": "view",
      "type": "function",
      "constant": true
    },
    {
      "inputs": [],
      "name": "winner",
      "outputs": [
        {
          "internalType": "address payable",
          "name": "",
          "type": "address"
        }
      ],
      "stateMutability": "view",
      "type": "function",
      "constant": true
    },
    {
      "stateMutability": "payable",
      "type": "receive",
      "payable": true
    },
    {
      "inputs": [],
      "name": "getBalance",
      "outputs": [
        {
          "internalType": "uint256",
          "name": "",
          "type": "uint256"
        }
      ],
      "stateMutability": "view",
      "type": "function",
      "constant": true
    },
    {
      "inputs": [],
      "name": "selectWinnner",
      "outputs": [],
      "stateMutability": "nonpayable",
      "type": "function"
    },
    {
      "inputs": [],
      "name": "allparticipants",
      "outputs": [
        {
          "internalType": "address payable[]",
          "name": "",
          "type": "address[]"
        }
      ],
      "stateMutability": "view",
      "type": "function",
      "constant": true
    }
  ],
  "bytecode": "0x608060405234801561000f575f80fd5b50335f806101000a81548173ffffffffffffffffffffffffffffffffffffffff021916908373ffffffffffffffffffffffffffffffffffffffff160217905550610a6f8061005c5f395ff3fe608060405260043610610058575f3560e01c806312065fe01461010c57806315f8c45414610136578063335ba36d1461014c57806335c1d34914610176578063481c6a75146101b2578063dfbf53ae146101dc57610108565b3661010857670de0b6b3a764000034146100a7576040517f08c379a000000000000000000000000000000000000000000000000000000000815260040161009e906106ae565b60405180910390fd5b600133908060018154018082558091505060019003905f5260205f20015f9091909190916101000a81548173ffffffffffffffffffffffffffffffffffffffff021916908373ffffffffffffffffffffffffffffffffffffffff1602179055005b5f80fd5b348015610117575f80fd5b50610120610206565b60405161012d91906106e4565b60405180910390f35b348015610141575f80fd5b5061014a610264565b005b348015610157575f80fd5b5061016061046c565b60405161016d91906107e4565b60405180910390f35b348015610181575f80fd5b5061019c60048036038101906101979190610832565b6104f7565b6040516101a9919061086c565b60405180910390f35b3480156101bd575f80fd5b506101c6610532565b6040516101d391906108a5565b60405180910390f35b3480156101e7575f80fd5b506101f0610555565b6040516101fd919061086c565b60405180910390f35b5f805f9054906101000a900473ffffffffffffffffffffffffffffffffffffffff1673ffffffffffffffffffffffffffffffffffffffff163373ffffffffffffffffffffffffffffffffffffffff161461025e575f80fd5b47905090565b5f8054906101000a900473ffffffffffffffffffffffffffffffffffffffff1673ffffffffffffffffffffffffffffffffffffffff163373ffffffffffffffffffffffffffffffffffffffff16146102ba575f80fd5b60036001805490501015610303576040517f08c379a00000000000000000000000000000000000000000000000000000000081526004016102fa90610908565b60405180910390fd5b5f61030c61057a565b90505f600180549050826103209190610953565b90506001818154811061033657610335610983565b5b905f5260205f20015f9054906101000a900473ffffffffffffffffffffffffffffffffffffffff1660025f6101000a81548173ffffffffffffffffffffffffffffffffffffffff021916908373ffffffffffffffffffffffffffffffffffffffff16021790555060025f9054906101000a900473ffffffffffffffffffffffffffffffffffffffff1673ffffffffffffffffffffffffffffffffffffffff166108fc6103e0610206565b90811502906040515f60405180830381858888f19350505050158015610408573d5f803e3d5ffd5b505f67ffffffffffffffff811115610423576104226109b0565b5b6040519080825280602002602001820160405280156104515781602001602082028036833780820191505090505b50600190805190602001906104679291906105b2565b505050565b606060018054806020026020016040519081016040528092919081815260200182805480156104ed57602002820191905f5260205f20905b815f9054906101000a900473ffffffffffffffffffffffffffffffffffffffff1673ffffffffffffffffffffffffffffffffffffffff16815260200190600101908083116104a4575b5050505050905090565b60018181548110610506575f80fd5b905f5260205f20015f915054906101000a900473ffffffffffffffffffffffffffffffffffffffff1681565b5f8054906101000a900473ffffffffffffffffffffffffffffffffffffffff1681565b60025f9054906101000a900473ffffffffffffffffffffffffffffffffffffffff1681565b5f4442600180549050604051602001610595939291906109fd565b604051602081830303815290604052805190602001205f1c905090565b828054828255905f5260205f20908101928215610628579160200282015b82811115610627578251825f6101000a81548173ffffffffffffffffffffffffffffffffffffffff021916908373ffffffffffffffffffffffffffffffffffffffff160217905550916020019190600101906105d0565b5b5090506106359190610639565b5090565b5b80821115610650575f815f90555060010161063a565b5090565b5f82825260208201905092915050565b7f506c6561736520706c61792031206574686572000000000000000000000000005f82015250565b5f610698601383610654565b91506106a382610664565b602082019050919050565b5f6020820190508181035f8301526106c58161068c565b9050919050565b5f819050919050565b6106de816106cc565b82525050565b5f6020820190506106f75f8301846106d5565b92915050565b5f81519050919050565b5f82825260208201905092915050565b5f819050602082019050919050565b5f73ffffffffffffffffffffffffffffffffffffffff82169050919050565b5f61074f82610726565b9050919050565b61075f81610745565b82525050565b5f6107708383610756565b60208301905092915050565b5f602082019050919050565b5f610792826106fd565b61079c8185610707565b93506107a783610717565b805f5b838110156107d75781516107be8882610765565b97506107c98361077c565b9250506001810190506107aa565b5085935050505092915050565b5f6020820190508181035f8301526107fc8184610788565b905092915050565b5f80fd5b610811816106cc565b811461081b575f80fd5b50565b5f8135905061082c81610808565b92915050565b5f6020828403121561084757610846610804565b5b5f6108548482850161081e565b91505092915050565b61086681610745565b82525050565b5f60208201905061087f5f83018461085d565b92915050565b5f61088f82610726565b9050919050565b61089f81610885565b82525050565b5f6020820190506108b85f830184610896565b92915050565b7f706c617965727320617265206c657373207468616e20330000000000000000005f82015250565b5f6108f2601783610654565b91506108fd826108be565b602082019050919050565b5f6020820190508181035f83015261091f816108e6565b9050919050565b7f4e487b71000000000000000000000000000000000000000000000000000000005f52601260045260245ffd5b5f61095d826106cc565b9150610968836106cc565b92508261097857610977610926565b5b828206905092915050565b7f4e487b71000000000000000000000000000000000000000000000000000000005f52603260045260245ffd5b7f4e487b71000000000000000000000000000000000000000000000000000000005f52604160045260245ffd5b5f819050919050565b6109f76109f2826106cc565b6109dd565b82525050565b5f610a0882866109e6565b602082019150610a1882856109e6565b602082019150610a2882846109e6565b60208201915081905094935050505056fea26469706673582212201990d1132ecb022d7447fcbf94933cdb53183970e13711a2874e7ed0bc1f6ac264736f6c63430008140033",
  "immutableReferences": {},
  "source": "// SPDX-License-Identifier: GPL-3.0\r\n\r\npragma solidity >=0.5.0 <0.9.0;\r\n\r\ncontract Lottery{\r\n    address public manager;\r\n    address payable[] public participants;\r\n    address payable public winner;\r\n\r\n    constructor()\r\n    {\r\n        manager = msg.sender;//when we compile and deploy the contract from that particular account it will be stored on the manager hence it will gain control of the contract\r\n    }\r\n\r\n    receive() external payable{\r\n        require(msg.value == 1 ether,\"Please play 1 ether\");\r\n        participants.push(payable(msg.sender));\r\n    }\r\n    function getBalance() public view returns(uint){\r\n        require(msg.sender== manager);\r\n        return address(this).balance;\r\n    }\r\n    //randomly select participants\r\n    function random() internal view returns(uint){\r\n      return uint(keccak256(abi.encodePacked(block.prevrandao,block.timestamp,participants.length)));\r\n    }\r\n    //selecting winnner //fetching array index\r\n    function selectWinnner() public{\r\n        require(msg.sender == manager);\r\n        require(participants.length>=3,\"players are less than 3\");\r\n        uint r = random();\r\n        // address payable winner;\r\n        uint index = r % participants.length;\r\n        winner = participants[index];\r\n        winner.transfer(getBalance());\r\n        participants= new address payable[](0);\r\n    }\r\n    function allparticipants() public view returns(address payable[] memory){\r\n        return participants;\r\n    }\r\n}",
  "sourcePath": "G:\\Lottery\\truffleProject\\contracts\\Lottery.sol",
  "compiler": {
    "name": "solc",
    "version": "0.8.20+commit.a1b79de6.Emscripten.clang"
  },
  "schemaVersion": "3.4.14",
  "updatedAt": "2023-06-11T14:04:15.752Z",
  "networkType": "ethereum",
  "devdoc": {
    "kind": "dev",
    "methods": {},
    "version": 1
  },
  "userdoc": {
    "kind": "user",
    "methods": {},
    "version": 1
  }
}